{
  "abi": [
    {
      "inputs": [
        {
          "internalType": "address",
          "name": "_user",
          "type": "address"
        },
        {
          "internalType": "uint256",
          "name": "id",
          "type": "uint256"
        }
      ],
      "name": "getReceivedMails",
      "outputs": [
        {
          "components": [
            {
              "internalType": "address",
              "name": "from",
              "type": "address"
            },
            {
              "internalType": "address",
              "name": "to",
              "type": "address"
            },
            {
              "internalType": "string",
              "name": "subject",
              "type": "string"
            },
            {
              "internalType": "string",
              "name": "message",
              "type": "string"
            },
            {
              "internalType": "uint256",
              "name": "timestamp",
              "type": "uint256"
            }
          ],
          "internalType": "struct DecentralizedMailer.Mail",
          "name": "",
          "type": "tuple"
        }
      ],
      "stateMutability": "view",
      "type": "function"
    },
    {
      "inputs": [
        {
          "internalType": "address",
          "name": "_user",
          "type": "address"
        }
      ],
      "name": "getReceivedMailsCount",
      "outputs": [
        {
          "internalType": "uint256",
          "name": "",
          "type": "uint256"
        }
      ],
      "stateMutability": "view",
      "type": "function"
    },
    {
      "inputs": [
        {
          "internalType": "address",
          "name": "_user",
          "type": "address"
        },
        {
          "internalType": "uint256",
          "name": "id",
          "type": "uint256"
        }
      ],
      "name": "getSentMails",
      "outputs": [
        {
          "components": [
            {
              "internalType": "address",
              "name": "from",
              "type": "address"
            },
            {
              "internalType": "address",
              "name": "to",
              "type": "address"
            },
            {
              "internalType": "string",
              "name": "subject",
              "type": "string"
            },
            {
              "internalType": "string",
              "name": "message",
              "type": "string"
            },
            {
              "internalType": "uint256",
              "name": "timestamp",
              "type": "uint256"
            }
          ],
          "internalType": "struct DecentralizedMailer.Mail",
          "name": "",
          "type": "tuple"
        }
      ],
      "stateMutability": "view",
      "type": "function"
    },
    {
      "inputs": [
        {
          "internalType": "address",
          "name": "_user",
          "type": "address"
        }
      ],
      "name": "getSentMailsCount",
      "outputs": [
        {
          "internalType": "uint256",
          "name": "",
          "type": "uint256"
        }
      ],
      "stateMutability": "view",
      "type": "function"
    },
    {
      "inputs": [
        {
          "internalType": "address",
          "name": "_to",
          "type": "address"
        },
        {
          "internalType": "string",
          "name": "_subject",
          "type": "string"
        },
        {
          "internalType": "string",
          "name": "_message",
          "type": "string"
        }
      ],
      "name": "sendMail",
      "outputs": [],
      "stateMutability": "nonpayable",
      "type": "function"
    }
  ],
  "devdoc": {
    "kind": "dev",
    "methods": {},
    "version": 1
  },
  "evm": {
    "assembly": "    /* \"dmail.sol\":109:1657  contract DecentralizedMailer {... */\n  mstore(0x40, 0x80)\n  callvalue\n  dup1\n  iszero\n  tag_1\n  jumpi\n  0x00\n  dup1\n  revert\ntag_1:\n  pop\n  dataSize(sub_0)\n  dup1\n  dataOffset(sub_0)\n  0x00\n  codecopy\n  0x00\n  return\nstop\n\nsub_0: assembly {\n        /* \"dmail.sol\":109:1657  contract DecentralizedMailer {... */\n      mstore(0x40, 0x80)\n      callvalue\n      dup1\n      iszero\n      tag_1\n      jumpi\n      0x00\n      dup1\n      revert\n    tag_1:\n      pop\n      jumpi(tag_2, lt(calldatasize, 0x04))\n      shr(0xe0, calldataload(0x00))\n      dup1\n      0x97027a3d\n      gt\n      tag_8\n      jumpi\n      dup1\n      0x97027a3d\n      eq\n      tag_5\n      jumpi\n      dup1\n      0xc1565b58\n      eq\n      tag_6\n      jumpi\n      dup1\n      0xe0984649\n      eq\n      tag_7\n      jumpi\n      0x00\n      dup1\n      revert\n    tag_8:\n      dup1\n      0x31a841b1\n      eq\n      tag_3\n      jumpi\n      dup1\n      0x3289e5e0\n      eq\n      tag_4\n      jumpi\n    tag_2:\n      0x00\n      dup1\n      revert\n        /* \"dmail.sol\":1126:1292  function getReceivedMailsCount (address _user) public view returns (uint) {... */\n    tag_3:\n      tag_9\n      tag_10\n      calldatasize\n      0x04\n      tag_11\n      jump\t// in\n    tag_10:\n      tag_12\n      jump\t// in\n    tag_9:\n      mload(0x40)\n        /* \"#utility.yul\":552:577   */\n      swap1\n      dup2\n      mstore\n        /* \"#utility.yul\":540:542   */\n      0x20\n        /* \"#utility.yul\":525:543   */\n      add\n        /* \"dmail.sol\":1126:1292  function getReceivedMailsCount (address _user) public view returns (uint) {... */\n    tag_13:\n      mload(0x40)\n      dup1\n      swap2\n      sub\n      swap1\n      return\n        /* \"dmail.sol\":960:1118  function getSentMailsCount (address _user) public view returns (uint) {... */\n    tag_4:\n      tag_9\n      tag_16\n      calldatasize\n      0x04\n      tag_11\n      jump\t// in\n    tag_16:\n      tag_17\n      jump\t// in\n        /* \"dmail.sol\":1300:1468  function getSentMails (address _user, uint id) public view returns (Mail memory) {... */\n    tag_5:\n      tag_19\n      tag_20\n      calldatasize\n      0x04\n      tag_21\n      jump\t// in\n    tag_20:\n      tag_22\n      jump\t// in\n    tag_19:\n      mload(0x40)\n      tag_13\n      swap2\n      swap1\n      tag_24\n      jump\t// in\n        /* \"dmail.sol\":610:952  function sendMail(address _to, string memory _subject, string memory _message) public {... */\n    tag_6:\n      tag_25\n      tag_26\n      calldatasize\n      0x04\n      tag_27\n      jump\t// in\n    tag_26:\n      tag_28\n      jump\t// in\n    tag_25:\n      stop\n        /* \"dmail.sol\":1476:1652  function getReceivedMails (address _user, uint id) public view returns (Mail memory) {... */\n    tag_7:\n      tag_19\n      tag_30\n      calldatasize\n      0x04\n      tag_21\n      jump\t// in\n    tag_30:\n      tag_31\n      jump\t// in\n        /* \"dmail.sol\":1126:1292  function getReceivedMailsCount (address _user) public view returns (uint) {... */\n    tag_12:\n        /* \"dmail.sol\":1194:1198  uint */\n      0x00\n        /* \"dmail.sol\":1219:1229  msg.sender */\n      caller\n      sub(shl(0xa0, 0x01), 0x01)\n        /* \"dmail.sol\":1219:1238  msg.sender == _user */\n      dup4\n      and\n      eq\n        /* \"dmail.sol\":1211:1239  require(msg.sender == _user) */\n      tag_34\n      jumpi\n      0x00\n      dup1\n      revert\n    tag_34:\n      pop\n      sub(shl(0xa0, 0x01), 0x01)\n        /* \"dmail.sol\":1258:1283  receivedMailsCount[_user] */\n      and\n      0x00\n      swap1\n      dup2\n      mstore\n        /* \"dmail.sol\":1258:1276  receivedMailsCount */\n      0x05\n        /* \"dmail.sol\":1258:1283  receivedMailsCount[_user] */\n      0x20\n      mstore\n      0x40\n      swap1\n      keccak256\n      sload\n      swap1\n        /* \"dmail.sol\":1126:1292  function getReceivedMailsCount (address _user) public view returns (uint) {... */\n      jump\t// out\n        /* \"dmail.sol\":960:1118  function getSentMailsCount (address _user) public view returns (uint) {... */\n    tag_17:\n        /* \"dmail.sol\":1024:1028  uint */\n      0x00\n        /* \"dmail.sol\":1049:1059  msg.sender */\n      caller\n      sub(shl(0xa0, 0x01), 0x01)\n        /* \"dmail.sol\":1049:1068  msg.sender == _user */\n      dup4\n      and\n      eq\n        /* \"dmail.sol\":1041:1069  require(msg.sender == _user) */\n      tag_36\n      jumpi\n      0x00\n      dup1\n      revert\n    tag_36:\n      pop\n      sub(shl(0xa0, 0x01), 0x01)\n        /* \"dmail.sol\":1088:1109  sentMailsCount[_user] */\n      and\n      0x00\n      swap1\n      dup2\n      mstore\n        /* \"dmail.sol\":1088:1102  sentMailsCount */\n      0x04\n        /* \"dmail.sol\":1088:1109  sentMailsCount[_user] */\n      0x20\n      mstore\n      0x40\n      swap1\n      keccak256\n      sload\n      swap1\n        /* \"dmail.sol\":960:1118  function getSentMailsCount (address _user) public view returns (uint) {... */\n      jump\t// out\n        /* \"dmail.sol\":1300:1468  function getSentMails (address _user, uint id) public view returns (Mail memory) {... */\n    tag_22:\n        /* \"dmail.sol\":1368:1379  Mail memory */\n      tag_37\n      mload(0x40)\n      dup1\n      0xa0\n      add\n      0x40\n      mstore\n      dup1\n      and(sub(shl(0xa0, 0x01), 0x01), 0x00)\n      dup2\n      mstore\n      0x20\n      add\n      and(sub(shl(0xa0, 0x01), 0x01), 0x00)\n      dup2\n      mstore\n      0x20\n      add\n      0x60\n      dup2\n      mstore\n      0x20\n      add\n      0x60\n      dup2\n      mstore\n      0x20\n      add\n      0x00\n      dup2\n      mstore\n      pop\n      swap1\n      jump\n    tag_37:\n        /* \"dmail.sol\":1400:1410  msg.sender */\n      caller\n      sub(shl(0xa0, 0x01), 0x01)\n        /* \"dmail.sol\":1400:1419  msg.sender == _user */\n      dup5\n      and\n      eq\n        /* \"dmail.sol\":1392:1420  require(msg.sender == _user) */\n      tag_40\n      jumpi\n      0x00\n      dup1\n      revert\n    tag_40:\n      sub(shl(0xa0, 0x01), 0x01)\n        /* \"dmail.sol\":1439:1455  sentMails[_user] */\n      dup4\n      and\n      0x00\n      swap1\n      dup2\n      mstore\n        /* \"dmail.sol\":1439:1448  sentMails */\n      0x02\n        /* \"dmail.sol\":1439:1455  sentMails[_user] */\n      0x20\n      mstore\n      0x40\n      swap1\n      keccak256\n        /* \"dmail.sol\":1439:1459  sentMails[_user][id] */\n      dup1\n      sload\n        /* \"dmail.sol\":1456:1458  id */\n      dup4\n      swap1\n        /* \"dmail.sol\":1439:1459  sentMails[_user][id] */\n      dup2\n      lt\n      tag_42\n      jumpi\n      tag_42\n      tag_43\n      jump\t// in\n    tag_42:\n      0x00\n      swap2\n      dup3\n      mstore\n      0x20\n      swap2\n      dup3\n      swap1\n      keccak256\n        /* \"dmail.sol\":1431:1460  return (sentMails[_user][id]) */\n      0x40\n      dup1\n      mload\n      0xa0\n      dup2\n      add\n      dup3\n      mstore\n        /* \"dmail.sol\":1439:1459  sentMails[_user][id] */\n      0x05\n      swap1\n      swap4\n      mul\n      swap1\n      swap2\n      add\n        /* \"dmail.sol\":1431:1460  return (sentMails[_user][id]) */\n      dup1\n      sload\n      sub(shl(0xa0, 0x01), 0x01)\n      swap1\n      dup2\n      and\n      dup5\n      mstore\n      0x01\n      dup3\n      add\n      sload\n      and\n      swap4\n      dup4\n      add\n      swap4\n      swap1\n      swap4\n      mstore\n      0x02\n      dup4\n      add\n      dup1\n      sload\n      swap3\n      swap4\n        /* \"dmail.sol\":1439:1459  sentMails[_user][id] */\n      swap3\n        /* \"dmail.sol\":1431:1460  return (sentMails[_user][id]) */\n      swap2\n      dup5\n      add\n      swap2\n      tag_45\n      swap1\n      tag_46\n      jump\t// in\n    tag_45:\n      dup1\n      0x1f\n      add\n      0x20\n      dup1\n      swap2\n      div\n      mul\n      0x20\n      add\n      mload(0x40)\n      swap1\n      dup2\n      add\n      0x40\n      mstore\n      dup1\n      swap3\n      swap2\n      swap1\n      dup2\n      dup2\n      mstore\n      0x20\n      add\n      dup3\n      dup1\n      sload\n      tag_47\n      swap1\n      tag_46\n      jump\t// in\n    tag_47:\n      dup1\n      iszero\n      tag_48\n      jumpi\n      dup1\n      0x1f\n      lt\n      tag_49\n      jumpi\n      0x0100\n      dup1\n      dup4\n      sload\n      div\n      mul\n      dup4\n      mstore\n      swap2\n      0x20\n      add\n      swap2\n      jump(tag_48)\n    tag_49:\n      dup3\n      add\n      swap2\n      swap1\n      0x00\n      mstore\n      keccak256(0x00, 0x20)\n      swap1\n    tag_50:\n      dup2\n      sload\n      dup2\n      mstore\n      swap1\n      0x01\n      add\n      swap1\n      0x20\n      add\n      dup1\n      dup4\n      gt\n      tag_50\n      jumpi\n      dup3\n      swap1\n      sub\n      0x1f\n      and\n      dup3\n      add\n      swap2\n    tag_48:\n      pop\n      pop\n      pop\n      pop\n      pop\n      dup2\n      mstore\n      0x20\n      add\n      0x03\n      dup3\n      add\n      dup1\n      sload\n      tag_51\n      swap1\n      tag_46\n      jump\t// in\n    tag_51:\n      dup1\n      0x1f\n      add\n      0x20\n      dup1\n      swap2\n      div\n      mul\n      0x20\n      add\n      mload(0x40)\n      swap1\n      dup2\n      add\n      0x40\n      mstore\n      dup1\n      swap3\n      swap2\n      swap1\n      dup2\n      dup2\n      mstore\n      0x20\n      add\n      dup3\n      dup1\n      sload\n      tag_52\n      swap1\n      tag_46\n      jump\t// in\n    tag_52:\n      dup1\n      iszero\n      tag_53\n      jumpi\n      dup1\n      0x1f\n      lt\n      tag_54\n      jumpi\n      0x0100\n      dup1\n      dup4\n      sload\n      div\n      mul\n      dup4\n      mstore\n      swap2\n      0x20\n      add\n      swap2\n      jump(tag_53)\n    tag_54:\n      dup3\n      add\n      swap2\n      swap1\n      0x00\n      mstore\n      keccak256(0x00, 0x20)\n      swap1\n    tag_55:\n      dup2\n      sload\n      dup2\n      mstore\n      swap1\n      0x01\n      add\n      swap1\n      0x20\n      add\n      dup1\n      dup4\n      gt\n      tag_55\n      jumpi\n      dup3\n      swap1\n      sub\n      0x1f\n      and\n      dup3\n      add\n      swap2\n    tag_53:\n      pop\n      pop\n      pop\n      pop\n      pop\n      dup2\n      mstore\n      0x20\n      add\n      0x04\n      dup3\n      add\n      sload\n      dup2\n      mstore\n      pop\n      pop\n      swap1\n      pop\n        /* \"dmail.sol\":1300:1468  function getSentMails (address _user, uint id) public view returns (Mail memory) {... */\n      swap3\n      swap2\n      pop\n      pop\n      jump\t// out\n        /* \"dmail.sol\":610:952  function sendMail(address _to, string memory _subject, string memory _message) public {... */\n    tag_28:\n        /* \"dmail.sol\":728:786  Mail(msg.sender, _to, _subject, _message, block.timestamp) */\n      0x40\n      dup1\n      mload\n      0xa0\n      dup2\n      add\n      dup3\n      mstore\n        /* \"dmail.sol\":733:743  msg.sender */\n      caller\n        /* \"dmail.sol\":728:786  Mail(msg.sender, _to, _subject, _message, block.timestamp) */\n      dup1\n      dup3\n      mstore\n      sub(shl(0xa0, 0x01), 0x01)\n      dup7\n      dup2\n      and\n      0x20\n      dup1\n      dup6\n      add\n      swap2\n      dup3\n      mstore\n      dup5\n      dup7\n      add\n      dup9\n      dup2\n      mstore\n      0x60\n      dup7\n      add\n      dup9\n      swap1\n      mstore\n        /* \"dmail.sol\":770:785  block.timestamp */\n      timestamp\n        /* \"dmail.sol\":728:786  Mail(msg.sender, _to, _subject, _message, block.timestamp) */\n      0x80\n      dup8\n      add\n      mstore\n        /* \"dmail.sol\":709:725  Mail memory mail */\n      0x00\n        /* \"dmail.sol\":797:818  sentMails[msg.sender] */\n      swap5\n      dup6\n      mstore\n        /* \"dmail.sol\":797:806  sentMails */\n      0x02\n        /* \"dmail.sol\":797:818  sentMails[msg.sender] */\n      dup1\n      dup4\n      mstore\n      swap7\n      dup6\n      keccak256\n        /* \"dmail.sol\":797:829  sentMails[msg.sender].push(mail) */\n      dup1\n      sload\n      0x01\n      dup2\n      dup2\n      add\n      dup4\n      sstore\n      swap2\n      dup8\n      mstore\n      swap6\n      dup4\n      swap1\n      keccak256\n      dup8\n      mload\n      0x05\n      swap1\n      swap8\n      mul\n      add\n      dup1\n      sload\n      swap7\n      dup7\n      and\n      not(0xffffffffffffffffffffffffffffffffffffffff)\n      swap8\n      dup9\n      and\n      or\n      dup2\n      sstore\n      swap4\n      mload\n      swap1\n      dup5\n      add\n      dup1\n      sload\n      swap2\n      swap1\n      swap6\n      and\n      swap6\n      and\n      swap5\n      swap1\n      swap5\n      or\n      swap1\n      swap3\n      sstore\n      swap2\n      mload\n      dup1\n      mload\n        /* \"dmail.sol\":728:786  Mail(msg.sender, _to, _subject, _message, block.timestamp) */\n      swap4\n      swap5\n      dup6\n      swap5\n        /* \"dmail.sol\":797:829  sentMails[msg.sender].push(mail) */\n      tag_58\n      swap4\n      swap2\n      dup6\n      add\n      swap3\n      swap1\n      swap2\n      add\n      swap1\n      tag_59\n      jump\t// in\n    tag_58:\n      pop\n      0x60\n      dup3\n      add\n      mload\n      dup1\n      mload\n      tag_60\n      swap2\n      0x03\n      dup5\n      add\n      swap2\n      0x20\n      swap1\n      swap2\n      add\n      swap1\n      tag_59\n      jump\t// in\n    tag_60:\n      pop\n      0x80\n      swap2\n      swap1\n      swap2\n      add\n      mload\n      0x04\n      swap2\n      dup3\n      add\n      sstore\n        /* \"dmail.sol\":855:865  msg.sender */\n      caller\n        /* \"dmail.sol\":840:866  sentMailsCount[msg.sender] */\n      0x00\n      swap1\n      dup2\n      mstore\n      0x20\n      swap2\n      swap1\n      swap2\n      mstore\n      0x40\n      dup2\n      keccak256\n        /* \"dmail.sol\":840:868  sentMailsCount[msg.sender]++ */\n      dup1\n      sload\n      swap2\n      tag_61\n      dup4\n      tag_62\n      jump\t// in\n    tag_61:\n      swap1\n      swap2\n      sstore\n      pop\n      pop\n      sub(shl(0xa0, 0x01), 0x01)\n        /* \"dmail.sol\":879:897  receivedMails[_to] */\n      dup1\n      dup6\n      and\n      0x00\n      swap1\n      dup2\n      mstore\n        /* \"dmail.sol\":879:892  receivedMails */\n      0x03\n        /* \"dmail.sol\":879:897  receivedMails[_to] */\n      0x20\n      swap1\n      dup2\n      mstore\n      0x40\n      dup1\n      dup4\n      keccak256\n        /* \"dmail.sol\":879:908  receivedMails[_to].push(mail) */\n      dup1\n      sload\n      0x01\n      dup2\n      dup2\n      add\n      dup4\n      sstore\n      swap2\n      dup6\n      mstore\n      swap4\n      dup4\n      swap1\n      keccak256\n      dup7\n      mload\n      0x05\n      swap1\n      swap6\n      mul\n      add\n      dup1\n      sload\n      swap5\n      dup7\n      and\n      not(0xffffffffffffffffffffffffffffffffffffffff)\n      swap6\n      dup7\n      and\n      or\n      dup2\n      sstore\n      dup7\n      dup5\n      add\n      mload\n      swap2\n      dup2\n      add\n      dup1\n      sload\n      swap3\n      swap1\n      swap7\n      and\n      swap2\n      swap1\n      swap5\n      and\n      or\n      swap1\n      swap4\n      sstore\n      swap2\n      dup4\n      add\n      mload\n      dup1\n      mload\n        /* \"dmail.sol\":903:907  mail */\n      dup5\n      swap4\n        /* \"dmail.sol\":879:908  receivedMails[_to].push(mail) */\n      tag_64\n      swap3\n      0x02\n      dup6\n      add\n      swap3\n      swap2\n      add\n      swap1\n      tag_59\n      jump\t// in\n    tag_64:\n      pop\n      0x60\n      dup3\n      add\n      mload\n      dup1\n      mload\n      tag_65\n      swap2\n      0x03\n      dup5\n      add\n      swap2\n      0x20\n      swap1\n      swap2\n      add\n      swap1\n      tag_59\n      jump\t// in\n    tag_65:\n      pop\n      0x80\n      swap2\n      swap1\n      swap2\n      add\n      mload\n      0x04\n      swap1\n      swap2\n      add\n      sstore\n      sub(shl(0xa0, 0x01), 0x01)\n        /* \"dmail.sol\":919:942  receivedMailsCount[_to] */\n      dup5\n      and\n      0x00\n      swap1\n      dup2\n      mstore\n        /* \"dmail.sol\":919:937  receivedMailsCount */\n      0x05\n        /* \"dmail.sol\":919:942  receivedMailsCount[_to] */\n      0x20\n      mstore\n      0x40\n      dup2\n      keccak256\n        /* \"dmail.sol\":919:944  receivedMailsCount[_to]++ */\n      dup1\n      sload\n      swap2\n      tag_66\n      dup4\n      tag_62\n      jump\t// in\n    tag_66:\n      swap2\n      swap1\n      pop\n      sstore\n      pop\n        /* \"dmail.sol\":696:952  {... */\n      pop\n        /* \"dmail.sol\":610:952  function sendMail(address _to, string memory _subject, string memory _message) public {... */\n      pop\n      pop\n      pop\n      jump\t// out\n        /* \"dmail.sol\":1476:1652  function getReceivedMails (address _user, uint id) public view returns (Mail memory) {... */\n    tag_31:\n        /* \"dmail.sol\":1548:1559  Mail memory */\n      tag_67\n      mload(0x40)\n      dup1\n      0xa0\n      add\n      0x40\n      mstore\n      dup1\n      and(sub(shl(0xa0, 0x01), 0x01), 0x00)\n      dup2\n      mstore\n      0x20\n      add\n      and(sub(shl(0xa0, 0x01), 0x01), 0x00)\n      dup2\n      mstore\n      0x20\n      add\n      0x60\n      dup2\n      mstore\n      0x20\n      add\n      0x60\n      dup2\n      mstore\n      0x20\n      add\n      0x00\n      dup2\n      mstore\n      pop\n      swap1\n      jump\n    tag_67:\n        /* \"dmail.sol\":1580:1590  msg.sender */\n      caller\n      sub(shl(0xa0, 0x01), 0x01)\n        /* \"dmail.sol\":1580:1599  msg.sender == _user */\n      dup5\n      and\n      eq\n        /* \"dmail.sol\":1572:1600  require(msg.sender == _user) */\n      tag_69\n      jumpi\n      0x00\n      dup1\n      revert\n    tag_69:\n      sub(shl(0xa0, 0x01), 0x01)\n        /* \"dmail.sol\":1619:1639  receivedMails[_user] */\n      dup4\n      and\n      0x00\n      swap1\n      dup2\n      mstore\n        /* \"dmail.sol\":1619:1632  receivedMails */\n      0x03\n        /* \"dmail.sol\":1619:1639  receivedMails[_user] */\n      0x20\n      mstore\n      0x40\n      swap1\n      keccak256\n        /* \"dmail.sol\":1619:1643  receivedMails[_user][id] */\n      dup1\n      sload\n        /* \"dmail.sol\":1640:1642  id */\n      dup4\n      swap1\n        /* \"dmail.sol\":1619:1643  receivedMails[_user][id] */\n      dup2\n      lt\n      tag_42\n      jumpi\n      tag_42\n      tag_43\n      jump\t// in\n    tag_59:\n      dup3\n      dup1\n      sload\n      tag_83\n      swap1\n      tag_46\n      jump\t// in\n    tag_83:\n      swap1\n      0x00\n      mstore\n      keccak256(0x00, 0x20)\n      swap1\n      0x1f\n      add\n      0x20\n      swap1\n      div\n      dup2\n      add\n      swap3\n      dup3\n      tag_85\n      jumpi\n      0x00\n      dup6\n      sstore\n      jump(tag_88)\n    tag_85:\n      dup3\n      0x1f\n      lt\n      tag_86\n      jumpi\n      dup1\n      mload\n      not(0xff)\n      and\n      dup4\n      dup1\n      add\n      or\n      dup6\n      sstore\n      jump(tag_88)\n    tag_86:\n      dup3\n      dup1\n      add\n      0x01\n      add\n      dup6\n      sstore\n      dup3\n      iszero\n      tag_88\n      jumpi\n      swap2\n      dup3\n      add\n    tag_87:\n      dup3\n      dup2\n      gt\n      iszero\n      tag_88\n      jumpi\n      dup3\n      mload\n      dup3\n      sstore\n      swap2\n      0x20\n      add\n      swap2\n      swap1\n      0x01\n      add\n      swap1\n      jump(tag_87)\n    tag_88:\n      pop\n      tag_89\n      swap3\n      swap2\n      pop\n      tag_90\n      jump\t// in\n    tag_89:\n      pop\n      swap1\n      jump\t// out\n    tag_90:\n    tag_91:\n      dup1\n      dup3\n      gt\n      iszero\n      tag_89\n      jumpi\n      0x00\n      dup2\n      sstore\n      0x01\n      add\n      jump(tag_91)\n        /* \"#utility.yul\":14:210   */\n    tag_93:\n        /* \"#utility.yul\":82:102   */\n      dup1\n      calldataload\n      sub(shl(0xa0, 0x01), 0x01)\n        /* \"#utility.yul\":131:185   */\n      dup2\n      and\n        /* \"#utility.yul\":121:186   */\n      dup2\n      eq\n        /* \"#utility.yul\":111:204   */\n      tag_99\n      jumpi\n        /* \"#utility.yul\":200:201   */\n      0x00\n        /* \"#utility.yul\":197:198   */\n      dup1\n        /* \"#utility.yul\":190:202   */\n      revert\n        /* \"#utility.yul\":111:204   */\n    tag_99:\n        /* \"#utility.yul\":14:210   */\n      swap2\n      swap1\n      pop\n      jump\t// out\n        /* \"#utility.yul\":215:401   */\n    tag_11:\n        /* \"#utility.yul\":274:280   */\n      0x00\n        /* \"#utility.yul\":327:329   */\n      0x20\n        /* \"#utility.yul\":315:324   */\n      dup3\n        /* \"#utility.yul\":306:313   */\n      dup5\n        /* \"#utility.yul\":302:325   */\n      sub\n        /* \"#utility.yul\":298:330   */\n      slt\n        /* \"#utility.yul\":295:347   */\n      iszero\n      tag_101\n      jumpi\n        /* \"#utility.yul\":343:344   */\n      0x00\n        /* \"#utility.yul\":340:341   */\n      dup1\n        /* \"#utility.yul\":333:345   */\n      revert\n        /* \"#utility.yul\":295:347   */\n    tag_101:\n        /* \"#utility.yul\":366:395   */\n      tag_102\n        /* \"#utility.yul\":385:394   */\n      dup3\n        /* \"#utility.yul\":366:395   */\n      tag_93\n      jump\t// in\n    tag_102:\n        /* \"#utility.yul\":356:395   */\n      swap4\n        /* \"#utility.yul\":215:401   */\n      swap3\n      pop\n      pop\n      pop\n      jump\t// out\n        /* \"#utility.yul\":588:842   */\n    tag_21:\n        /* \"#utility.yul\":656:662   */\n      0x00\n        /* \"#utility.yul\":664:670   */\n      dup1\n        /* \"#utility.yul\":717:719   */\n      0x40\n        /* \"#utility.yul\":705:714   */\n      dup4\n        /* \"#utility.yul\":696:703   */\n      dup6\n        /* \"#utility.yul\":692:715   */\n      sub\n        /* \"#utility.yul\":688:720   */\n      slt\n        /* \"#utility.yul\":685:737   */\n      iszero\n      tag_105\n      jumpi\n        /* \"#utility.yul\":733:734   */\n      0x00\n        /* \"#utility.yul\":730:731   */\n      dup1\n        /* \"#utility.yul\":723:735   */\n      revert\n        /* \"#utility.yul\":685:737   */\n    tag_105:\n        /* \"#utility.yul\":756:785   */\n      tag_106\n        /* \"#utility.yul\":775:784   */\n      dup4\n        /* \"#utility.yul\":756:785   */\n      tag_93\n      jump\t// in\n    tag_106:\n        /* \"#utility.yul\":746:785   */\n      swap5\n        /* \"#utility.yul\":832:834   */\n      0x20\n        /* \"#utility.yul\":817:835   */\n      swap4\n      swap1\n      swap4\n      add\n        /* \"#utility.yul\":804:836   */\n      calldataload\n      swap4\n      pop\n      pop\n      pop\n        /* \"#utility.yul\":588:842   */\n      jump\t// out\n        /* \"#utility.yul\":847:1319   */\n    tag_94:\n        /* \"#utility.yul\":889:892   */\n      0x00\n        /* \"#utility.yul\":927:932   */\n      dup2\n        /* \"#utility.yul\":921:933   */\n      mload\n        /* \"#utility.yul\":954:960   */\n      dup1\n        /* \"#utility.yul\":949:952   */\n      dup5\n        /* \"#utility.yul\":942:961   */\n      mstore\n        /* \"#utility.yul\":979:980   */\n      0x00\n        /* \"#utility.yul\":989:1151   */\n    tag_108:\n        /* \"#utility.yul\":1003:1009   */\n      dup2\n        /* \"#utility.yul\":1000:1001   */\n      dup2\n        /* \"#utility.yul\":997:1010   */\n      lt\n        /* \"#utility.yul\":989:1151   */\n      iszero\n      tag_110\n      jumpi\n        /* \"#utility.yul\":1065:1069   */\n      0x20\n        /* \"#utility.yul\":1121:1134   */\n      dup2\n      dup6\n      add\n        /* \"#utility.yul\":1117:1139   */\n      dup2\n      add\n        /* \"#utility.yul\":1111:1140   */\n      mload\n        /* \"#utility.yul\":1093:1104   */\n      dup7\n      dup4\n      add\n        /* \"#utility.yul\":1089:1109   */\n      dup3\n      add\n        /* \"#utility.yul\":1082:1141   */\n      mstore\n        /* \"#utility.yul\":1018:1030   */\n      add\n        /* \"#utility.yul\":989:1151   */\n      jump(tag_108)\n    tag_110:\n        /* \"#utility.yul\":1169:1175   */\n      dup2\n        /* \"#utility.yul\":1166:1167   */\n      dup2\n        /* \"#utility.yul\":1163:1176   */\n      gt\n        /* \"#utility.yul\":1160:1247   */\n      iszero\n      tag_111\n      jumpi\n        /* \"#utility.yul\":1235:1236   */\n      0x00\n        /* \"#utility.yul\":1228:1232   */\n      0x20\n        /* \"#utility.yul\":1219:1225   */\n      dup4\n        /* \"#utility.yul\":1214:1217   */\n      dup8\n        /* \"#utility.yul\":1210:1226   */\n      add\n        /* \"#utility.yul\":1206:1233   */\n      add\n        /* \"#utility.yul\":1199:1237   */\n      mstore\n        /* \"#utility.yul\":1160:1247   */\n    tag_111:\n      pop\n        /* \"#utility.yul\":1301:1303   */\n      0x1f\n        /* \"#utility.yul\":1280:1295   */\n      add\n      not(0x1f)\n        /* \"#utility.yul\":1276:1305   */\n      and\n        /* \"#utility.yul\":1267:1306   */\n      swap3\n      swap1\n      swap3\n      add\n        /* \"#utility.yul\":1308:1312   */\n      0x20\n        /* \"#utility.yul\":1263:1313   */\n      add\n      swap3\n        /* \"#utility.yul\":847:1319   */\n      swap2\n      pop\n      pop\n      jump\t// out\n        /* \"#utility.yul\":1324:2133   */\n    tag_24:\n        /* \"#utility.yul\":1493:1495   */\n      0x20\n        /* \"#utility.yul\":1482:1491   */\n      dup2\n        /* \"#utility.yul\":1475:1496   */\n      mstore\n        /* \"#utility.yul\":1456:1460   */\n      0x00\n      sub(shl(0xa0, 0x01), 0x01)\n        /* \"#utility.yul\":1612:1614   */\n      dup1\n        /* \"#utility.yul\":1603:1609   */\n      dup5\n        /* \"#utility.yul\":1597:1610   */\n      mload\n        /* \"#utility.yul\":1593:1615   */\n      and\n        /* \"#utility.yul\":1588:1590   */\n      0x20\n        /* \"#utility.yul\":1577:1586   */\n      dup5\n        /* \"#utility.yul\":1573:1591   */\n      add\n        /* \"#utility.yul\":1566:1616   */\n      mstore\n        /* \"#utility.yul\":1680:1682   */\n      dup1\n        /* \"#utility.yul\":1674:1676   */\n      0x20\n        /* \"#utility.yul\":1666:1672   */\n      dup6\n        /* \"#utility.yul\":1662:1677   */\n      add\n        /* \"#utility.yul\":1656:1678   */\n      mload\n        /* \"#utility.yul\":1652:1683   */\n      and\n        /* \"#utility.yul\":1647:1649   */\n      0x40\n        /* \"#utility.yul\":1636:1645   */\n      dup5\n        /* \"#utility.yul\":1632:1650   */\n      add\n        /* \"#utility.yul\":1625:1684   */\n      mstore\n      pop\n        /* \"#utility.yul\":1731:1733   */\n      0x40\n        /* \"#utility.yul\":1723:1729   */\n      dup4\n        /* \"#utility.yul\":1719:1734   */\n      add\n        /* \"#utility.yul\":1713:1735   */\n      mload\n        /* \"#utility.yul\":1771:1775   */\n      0xa0\n        /* \"#utility.yul\":1766:1768   */\n      0x60\n        /* \"#utility.yul\":1755:1764   */\n      dup5\n        /* \"#utility.yul\":1751:1769   */\n      add\n        /* \"#utility.yul\":1744:1776   */\n      mstore\n        /* \"#utility.yul\":1799:1851   */\n      tag_113\n        /* \"#utility.yul\":1846:1849   */\n      0xc0\n        /* \"#utility.yul\":1835:1844   */\n      dup5\n        /* \"#utility.yul\":1831:1850   */\n      add\n        /* \"#utility.yul\":1817:1829   */\n      dup3\n        /* \"#utility.yul\":1799:1851   */\n      tag_94\n      jump\t// in\n    tag_113:\n        /* \"#utility.yul\":1785:1851   */\n      swap1\n      pop\n        /* \"#utility.yul\":1900:1902   */\n      0x60\n        /* \"#utility.yul\":1892:1898   */\n      dup5\n        /* \"#utility.yul\":1888:1903   */\n      add\n        /* \"#utility.yul\":1882:1904   */\n      mload\n        /* \"#utility.yul\":1973:1975   */\n      0x1f\n        /* \"#utility.yul\":1969:1976   */\n      not\n        /* \"#utility.yul\":1957:1966   */\n      dup5\n        /* \"#utility.yul\":1949:1955   */\n      dup4\n        /* \"#utility.yul\":1945:1967   */\n      sub\n        /* \"#utility.yul\":1941:1977   */\n      add\n        /* \"#utility.yul\":1935:1938   */\n      0x80\n        /* \"#utility.yul\":1924:1933   */\n      dup6\n        /* \"#utility.yul\":1920:1939   */\n      add\n        /* \"#utility.yul\":1913:1978   */\n      mstore\n        /* \"#utility.yul\":2001:2042   */\n      tag_114\n        /* \"#utility.yul\":2035:2041   */\n      dup3\n        /* \"#utility.yul\":2019:2033   */\n      dup3\n        /* \"#utility.yul\":2001:2042   */\n      tag_94\n      jump\t// in\n    tag_114:\n        /* \"#utility.yul\":1987:2042   */\n      swap2\n      pop\n      pop\n        /* \"#utility.yul\":2098:2101   */\n      0x80\n        /* \"#utility.yul\":2090:2096   */\n      dup5\n        /* \"#utility.yul\":2086:2102   */\n      add\n        /* \"#utility.yul\":2080:2103   */\n      mload\n        /* \"#utility.yul\":2073:2077   */\n      0xa0\n        /* \"#utility.yul\":2062:2071   */\n      dup5\n        /* \"#utility.yul\":2058:2078   */\n      add\n        /* \"#utility.yul\":2051:2104   */\n      mstore\n        /* \"#utility.yul\":2121:2127   */\n      dup1\n        /* \"#utility.yul\":2113:2127   */\n      swap2\n      pop\n      pop\n        /* \"#utility.yul\":1324:2133   */\n      swap3\n      swap2\n      pop\n      pop\n      jump\t// out\n        /* \"#utility.yul\":2138:2265   */\n    tag_95:\n        /* \"#utility.yul\":2199:2209   */\n      0x4e487b71\n        /* \"#utility.yul\":2194:2197   */\n      0xe0\n        /* \"#utility.yul\":2190:2210   */\n      shl\n        /* \"#utility.yul\":2187:2188   */\n      0x00\n        /* \"#utility.yul\":2180:2211   */\n      mstore\n        /* \"#utility.yul\":2230:2234   */\n      0x41\n        /* \"#utility.yul\":2227:2228   */\n      0x04\n        /* \"#utility.yul\":2220:2235   */\n      mstore\n        /* \"#utility.yul\":2254:2258   */\n      0x24\n        /* \"#utility.yul\":2251:2252   */\n      0x00\n        /* \"#utility.yul\":2244:2259   */\n      revert\n        /* \"#utility.yul\":2270:2989   */\n    tag_96:\n        /* \"#utility.yul\":2313:2318   */\n      0x00\n        /* \"#utility.yul\":2366:2369   */\n      dup3\n        /* \"#utility.yul\":2359:2363   */\n      0x1f\n        /* \"#utility.yul\":2351:2357   */\n      dup4\n        /* \"#utility.yul\":2347:2364   */\n      add\n        /* \"#utility.yul\":2343:2370   */\n      slt\n        /* \"#utility.yul\":2333:2388   */\n      tag_117\n      jumpi\n        /* \"#utility.yul\":2384:2385   */\n      0x00\n        /* \"#utility.yul\":2381:2382   */\n      dup1\n        /* \"#utility.yul\":2374:2386   */\n      revert\n        /* \"#utility.yul\":2333:2388   */\n    tag_117:\n        /* \"#utility.yul\":2420:2426   */\n      dup2\n        /* \"#utility.yul\":2407:2427   */\n      calldataload\n        /* \"#utility.yul\":2446:2464   */\n      0xffffffffffffffff\n        /* \"#utility.yul\":2483:2485   */\n      dup1\n        /* \"#utility.yul\":2479:2481   */\n      dup3\n        /* \"#utility.yul\":2476:2486   */\n      gt\n        /* \"#utility.yul\":2473:2509   */\n      iszero\n      tag_119\n      jumpi\n        /* \"#utility.yul\":2489:2507   */\n      tag_119\n      tag_95\n      jump\t// in\n    tag_119:\n        /* \"#utility.yul\":2564:2566   */\n      0x40\n        /* \"#utility.yul\":2558:2567   */\n      mload\n        /* \"#utility.yul\":2532:2534   */\n      0x1f\n        /* \"#utility.yul\":2618:2631   */\n      dup4\n      add\n      not(0x1f)\n        /* \"#utility.yul\":2614:2636   */\n      swap1\n      dup2\n      and\n        /* \"#utility.yul\":2638:2640   */\n      0x3f\n        /* \"#utility.yul\":2610:2641   */\n      add\n        /* \"#utility.yul\":2606:2646   */\n      and\n        /* \"#utility.yul\":2594:2647   */\n      dup2\n      add\n      swap1\n        /* \"#utility.yul\":2662:2680   */\n      dup3\n      dup3\n      gt\n        /* \"#utility.yul\":2682:2704   */\n      dup2\n      dup4\n      lt\n        /* \"#utility.yul\":2659:2705   */\n      or\n        /* \"#utility.yul\":2656:2728   */\n      iszero\n      tag_121\n      jumpi\n        /* \"#utility.yul\":2708:2726   */\n      tag_121\n      tag_95\n      jump\t// in\n    tag_121:\n        /* \"#utility.yul\":2748:2758   */\n      dup2\n        /* \"#utility.yul\":2744:2746   */\n      0x40\n        /* \"#utility.yul\":2737:2759   */\n      mstore\n        /* \"#utility.yul\":2783:2785   */\n      dup4\n        /* \"#utility.yul\":2775:2781   */\n      dup2\n        /* \"#utility.yul\":2768:2786   */\n      mstore\n        /* \"#utility.yul\":2829:2832   */\n      dup7\n        /* \"#utility.yul\":2822:2826   */\n      0x20\n        /* \"#utility.yul\":2817:2819   */\n      dup6\n        /* \"#utility.yul\":2809:2815   */\n      dup9\n        /* \"#utility.yul\":2805:2820   */\n      add\n        /* \"#utility.yul\":2801:2827   */\n      add\n        /* \"#utility.yul\":2798:2833   */\n      gt\n        /* \"#utility.yul\":2795:2850   */\n      iszero\n      tag_122\n      jumpi\n        /* \"#utility.yul\":2846:2847   */\n      0x00\n        /* \"#utility.yul\":2843:2844   */\n      dup1\n        /* \"#utility.yul\":2836:2848   */\n      revert\n        /* \"#utility.yul\":2795:2850   */\n    tag_122:\n        /* \"#utility.yul\":2910:2912   */\n      dup4\n        /* \"#utility.yul\":2903:2907   */\n      0x20\n        /* \"#utility.yul\":2895:2901   */\n      dup8\n        /* \"#utility.yul\":2891:2908   */\n      add\n        /* \"#utility.yul\":2884:2888   */\n      0x20\n        /* \"#utility.yul\":2876:2882   */\n      dup4\n        /* \"#utility.yul\":2872:2889   */\n      add\n        /* \"#utility.yul\":2859:2913   */\n      calldatacopy\n        /* \"#utility.yul\":2957:2958   */\n      0x00\n        /* \"#utility.yul\":2950:2954   */\n      0x20\n        /* \"#utility.yul\":2945:2947   */\n      dup6\n        /* \"#utility.yul\":2937:2943   */\n      dup4\n        /* \"#utility.yul\":2933:2948   */\n      add\n        /* \"#utility.yul\":2929:2955   */\n      add\n        /* \"#utility.yul\":2922:2959   */\n      mstore\n        /* \"#utility.yul\":2977:2983   */\n      dup1\n        /* \"#utility.yul\":2968:2983   */\n      swap5\n      pop\n      pop\n      pop\n      pop\n      pop\n        /* \"#utility.yul\":2270:2989   */\n      swap3\n      swap2\n      pop\n      pop\n      jump\t// out\n        /* \"#utility.yul\":2994:3611   */\n    tag_27:\n        /* \"#utility.yul\":3091:3097   */\n      0x00\n        /* \"#utility.yul\":3099:3105   */\n      dup1\n        /* \"#utility.yul\":3107:3113   */\n      0x00\n        /* \"#utility.yul\":3160:3162   */\n      0x60\n        /* \"#utility.yul\":3148:3157   */\n      dup5\n        /* \"#utility.yul\":3139:3146   */\n      dup7\n        /* \"#utility.yul\":3135:3158   */\n      sub\n        /* \"#utility.yul\":3131:3163   */\n      slt\n        /* \"#utility.yul\":3128:3180   */\n      iszero\n      tag_124\n      jumpi\n        /* \"#utility.yul\":3176:3177   */\n      0x00\n        /* \"#utility.yul\":3173:3174   */\n      dup1\n        /* \"#utility.yul\":3166:3178   */\n      revert\n        /* \"#utility.yul\":3128:3180   */\n    tag_124:\n        /* \"#utility.yul\":3199:3228   */\n      tag_125\n        /* \"#utility.yul\":3218:3227   */\n      dup5\n        /* \"#utility.yul\":3199:3228   */\n      tag_93\n      jump\t// in\n    tag_125:\n        /* \"#utility.yul\":3189:3228   */\n      swap3\n      pop\n        /* \"#utility.yul\":3279:3281   */\n      0x20\n        /* \"#utility.yul\":3268:3277   */\n      dup5\n        /* \"#utility.yul\":3264:3282   */\n      add\n        /* \"#utility.yul\":3251:3283   */\n      calldataload\n        /* \"#utility.yul\":3302:3320   */\n      0xffffffffffffffff\n        /* \"#utility.yul\":3343:3345   */\n      dup1\n        /* \"#utility.yul\":3335:3341   */\n      dup3\n        /* \"#utility.yul\":3332:3346   */\n      gt\n        /* \"#utility.yul\":3329:3363   */\n      iszero\n      tag_126\n      jumpi\n        /* \"#utility.yul\":3359:3360   */\n      0x00\n        /* \"#utility.yul\":3356:3357   */\n      dup1\n        /* \"#utility.yul\":3349:3361   */\n      revert\n        /* \"#utility.yul\":3329:3363   */\n    tag_126:\n        /* \"#utility.yul\":3382:3432   */\n      tag_127\n        /* \"#utility.yul\":3424:3431   */\n      dup8\n        /* \"#utility.yul\":3415:3421   */\n      dup4\n        /* \"#utility.yul\":3404:3413   */\n      dup9\n        /* \"#utility.yul\":3400:3422   */\n      add\n        /* \"#utility.yul\":3382:3432   */\n      tag_96\n      jump\t// in\n    tag_127:\n        /* \"#utility.yul\":3372:3432   */\n      swap4\n      pop\n        /* \"#utility.yul\":3485:3487   */\n      0x40\n        /* \"#utility.yul\":3474:3483   */\n      dup7\n        /* \"#utility.yul\":3470:3488   */\n      add\n        /* \"#utility.yul\":3457:3489   */\n      calldataload\n        /* \"#utility.yul\":3441:3489   */\n      swap2\n      pop\n        /* \"#utility.yul\":3514:3516   */\n      dup1\n        /* \"#utility.yul\":3504:3512   */\n      dup3\n        /* \"#utility.yul\":3501:3517   */\n      gt\n        /* \"#utility.yul\":3498:3534   */\n      iszero\n      tag_128\n      jumpi\n        /* \"#utility.yul\":3530:3531   */\n      0x00\n        /* \"#utility.yul\":3527:3528   */\n      dup1\n        /* \"#utility.yul\":3520:3532   */\n      revert\n        /* \"#utility.yul\":3498:3534   */\n    tag_128:\n      pop\n        /* \"#utility.yul\":3553:3605   */\n      tag_129\n        /* \"#utility.yul\":3597:3604   */\n      dup7\n        /* \"#utility.yul\":3586:3594   */\n      dup3\n        /* \"#utility.yul\":3575:3584   */\n      dup8\n        /* \"#utility.yul\":3571:3595   */\n      add\n        /* \"#utility.yul\":3553:3605   */\n      tag_96\n      jump\t// in\n    tag_129:\n        /* \"#utility.yul\":3543:3605   */\n      swap2\n      pop\n      pop\n        /* \"#utility.yul\":2994:3611   */\n      swap3\n      pop\n      swap3\n      pop\n      swap3\n      jump\t// out\n        /* \"#utility.yul\":3616:3743   */\n    tag_43:\n        /* \"#utility.yul\":3677:3687   */\n      0x4e487b71\n        /* \"#utility.yul\":3672:3675   */\n      0xe0\n        /* \"#utility.yul\":3668:3688   */\n      shl\n        /* \"#utility.yul\":3665:3666   */\n      0x00\n        /* \"#utility.yul\":3658:3689   */\n      mstore\n        /* \"#utility.yul\":3708:3712   */\n      0x32\n        /* \"#utility.yul\":3705:3706   */\n      0x04\n        /* \"#utility.yul\":3698:3713   */\n      mstore\n        /* \"#utility.yul\":3732:3736   */\n      0x24\n        /* \"#utility.yul\":3729:3730   */\n      0x00\n        /* \"#utility.yul\":3722:3737   */\n      revert\n        /* \"#utility.yul\":3748:4128   */\n    tag_46:\n        /* \"#utility.yul\":3827:3828   */\n      0x01\n        /* \"#utility.yul\":3823:3835   */\n      dup2\n      dup2\n      shr\n      swap1\n        /* \"#utility.yul\":3870:3882   */\n      dup3\n      and\n      dup1\n        /* \"#utility.yul\":3891:3952   */\n      tag_132\n      jumpi\n        /* \"#utility.yul\":3945:3949   */\n      0x7f\n        /* \"#utility.yul\":3937:3943   */\n      dup3\n        /* \"#utility.yul\":3933:3950   */\n      and\n        /* \"#utility.yul\":3923:3950   */\n      swap2\n      pop\n        /* \"#utility.yul\":3891:3952   */\n    tag_132:\n        /* \"#utility.yul\":3998:4000   */\n      0x20\n        /* \"#utility.yul\":3990:3996   */\n      dup3\n        /* \"#utility.yul\":3987:4001   */\n      lt\n        /* \"#utility.yul\":3967:3985   */\n      dup2\n        /* \"#utility.yul\":3964:4002   */\n      sub\n        /* \"#utility.yul\":3961:4122   */\n      tag_133\n      jumpi\n        /* \"#utility.yul\":4044:4054   */\n      0x4e487b71\n        /* \"#utility.yul\":4039:4042   */\n      0xe0\n        /* \"#utility.yul\":4035:4055   */\n      shl\n        /* \"#utility.yul\":4032:4033   */\n      0x00\n        /* \"#utility.yul\":4025:4056   */\n      mstore\n        /* \"#utility.yul\":4079:4083   */\n      0x22\n        /* \"#utility.yul\":4076:4077   */\n      0x04\n        /* \"#utility.yul\":4069:4084   */\n      mstore\n        /* \"#utility.yul\":4107:4111   */\n      0x24\n        /* \"#utility.yul\":4104:4105   */\n      0x00\n        /* \"#utility.yul\":4097:4112   */\n      revert\n        /* \"#utility.yul\":3961:4122   */\n    tag_133:\n      pop\n        /* \"#utility.yul\":3748:4128   */\n      swap2\n      swap1\n      pop\n      jump\t// out\n        /* \"#utility.yul\":4133:4365   */\n    tag_62:\n        /* \"#utility.yul\":4172:4175   */\n      0x00\n        /* \"#utility.yul\":4193:4210   */\n      0x01\n      dup3\n      add\n        /* \"#utility.yul\":4190:4330   */\n      tag_135\n      jumpi\n        /* \"#utility.yul\":4252:4262   */\n      0x4e487b71\n        /* \"#utility.yul\":4247:4250   */\n      0xe0\n        /* \"#utility.yul\":4243:4263   */\n      shl\n        /* \"#utility.yul\":4240:4241   */\n      0x00\n        /* \"#utility.yul\":4233:4264   */\n      mstore\n        /* \"#utility.yul\":4287:4291   */\n      0x11\n        /* \"#utility.yul\":4284:4285   */\n      0x04\n        /* \"#utility.yul\":4277:4292   */\n      mstore\n        /* \"#utility.yul\":4315:4319   */\n      0x24\n        /* \"#utility.yul\":4312:4313   */\n      0x00\n        /* \"#utility.yul\":4305:4320   */\n      revert\n        /* \"#utility.yul\":4190:4330   */\n    tag_135:\n      pop\n        /* \"#utility.yul\":4357:4358   */\n      0x01\n        /* \"#utility.yul\":4346:4359   */\n      add\n      swap1\n        /* \"#utility.yul\":4133:4365   */\n      jump\t// out\n\n    auxdata: 0xa26469706673582212207a5972d4f9ba62bdcb6dc436791ed267cf9f2b61dfbbbc59d3f1ab0082157c4064736f6c634300080d0033\n}\n",
    "bytecode": {
      "linkReferences": {},
      "object": "608060405234801561001057600080fd5b5061091f806100206000396000f3fe608060405234801561001057600080fd5b50600436106100675760003560e01c806397027a3d1161005057806397027a3d146100a5578063c1565b58146100c5578063e0984649146100da57600080fd5b806331a841b11461006c5780633289e5e014610092575b600080fd5b61007f61007a366004610651565b6100ed565b6040519081526020015b60405180910390f35b61007f6100a0366004610651565b610120565b6100b86100b3366004610673565b610153565b60405161008991906106ea565b6100d86100d33660046107fe565b61034b565b005b6100b86100e8366004610673565b610519565b6000336001600160a01b0383161461010457600080fd5b506001600160a01b031660009081526005602052604090205490565b6000336001600160a01b0383161461013757600080fd5b506001600160a01b031660009081526004602052604090205490565b6101976040518060a0016040528060006001600160a01b0316815260200160006001600160a01b031681526020016060815260200160608152602001600081525090565b336001600160a01b038416146101ac57600080fd5b6001600160a01b03831660009081526002602052604090208054839081106101d6576101d6610872565b60009182526020918290206040805160a081018252600590930290910180546001600160a01b039081168452600182015416938301939093526002830180549293929184019161022590610888565b80601f016020809104026020016040519081016040528092919081815260200182805461025190610888565b801561029e5780601f106102735761010080835404028352916020019161029e565b820191906000526020600020905b81548152906001019060200180831161028157829003601f168201915b505050505081526020016003820180546102b790610888565b80601f01602080910402602001604051908101604052809291908181526020018280546102e390610888565b80156103305780601f1061030557610100808354040283529160200191610330565b820191906000526020600020905b81548152906001019060200180831161031357829003601f168201915b50505050508152602001600482015481525050905092915050565b6040805160a081018252338082526001600160a01b0386811660208085019182528486018881526060860188905242608087015260009485526002808352968520805460018181018355918752958390208751600590970201805496861673ffffffffffffffffffffffffffffffffffffffff19978816178155935190840180549190951695169490941790925591518051939485946103f293918501929091019061059c565b506060820151805161040e91600384019160209091019061059c565b506080919091015160049182015533600090815260209190915260408120805491610438836108c2565b90915550506001600160a01b038085166000908152600360209081526040808320805460018181018355918552938390208651600590950201805494861673ffffffffffffffffffffffffffffffffffffffff1995861617815586840151918101805492909616919094161790935591830151805184936104c092600285019291019061059c565b50606082015180516104dc91600384019160209091019061059c565b50608091909101516004909101556001600160a01b038416600090815260056020526040812080549161050e836108c2565b919050555050505050565b61055d6040518060a0016040528060006001600160a01b0316815260200160006001600160a01b031681526020016060815260200160608152602001600081525090565b336001600160a01b0384161461057257600080fd5b6001600160a01b03831660009081526003602052604090208054839081106101d6576101d6610872565b8280546105a890610888565b90600052602060002090601f0160209004810192826105ca5760008555610610565b82601f106105e357805160ff1916838001178555610610565b82800160010185558215610610579182015b828111156106105782518255916020019190600101906105f5565b5061061c929150610620565b5090565b5b8082111561061c5760008155600101610621565b80356001600160a01b038116811461064c57600080fd5b919050565b60006020828403121561066357600080fd5b61066c82610635565b9392505050565b6000806040838503121561068657600080fd5b61068f83610635565b946020939093013593505050565b6000815180845260005b818110156106c3576020818501810151868301820152016106a7565b818111156106d5576000602083870101525b50601f01601f19169290920160200192915050565b6020815260006001600160a01b0380845116602084015280602085015116604084015250604083015160a0606084015261072760c084018261069d565b90506060840151601f19848303016080850152610744828261069d565b915050608084015160a08401528091505092915050565b634e487b7160e01b600052604160045260246000fd5b600082601f83011261078257600080fd5b813567ffffffffffffffff8082111561079d5761079d61075b565b604051601f8301601f19908116603f011681019082821181831017156107c5576107c561075b565b816040528381528660208588010111156107de57600080fd5b836020870160208301376000602085830101528094505050505092915050565b60008060006060848603121561081357600080fd5b61081c84610635565b9250602084013567ffffffffffffffff8082111561083957600080fd5b61084587838801610771565b9350604086013591508082111561085b57600080fd5b5061086886828701610771565b9150509250925092565b634e487b7160e01b600052603260045260246000fd5b600181811c9082168061089c57607f821691505b6020821081036108bc57634e487b7160e01b600052602260045260246000fd5b50919050565b6000600182016108e257634e487b7160e01b600052601160045260246000fd5b506001019056fea26469706673582212207a5972d4f9ba62bdcb6dc436791ed267cf9f2b61dfbbbc59d3f1ab0082157c4064736f6c634300080d0033",
      "opcodes": "PUSH1 0x80 PUSH1 0x40 MSTORE CALLVALUE DUP1 ISZERO PUSH2 0x10 JUMPI PUSH1 0x0 DUP1 REVERT JUMPDEST POP PUSH2 0x91F DUP1 PUSH2 0x20 PUSH1 0x0 CODECOPY PUSH1 0x0 RETURN INVALID PUSH1 0x80 PUSH1 0x40 MSTORE CALLVALUE DUP1 ISZERO PUSH2 0x10 JUMPI PUSH1 0x0 DUP1 REVERT JUMPDEST POP PUSH1 0x4 CALLDATASIZE LT PUSH2 0x67 JUMPI PUSH1 0x0 CALLDATALOAD PUSH1 0xE0 SHR DUP1 PUSH4 0x97027A3D GT PUSH2 0x50 JUMPI DUP1 PUSH4 0x97027A3D EQ PUSH2 0xA5 JUMPI DUP1 PUSH4 0xC1565B58 EQ PUSH2 0xC5 JUMPI DUP1 PUSH4 0xE0984649 EQ PUSH2 0xDA JUMPI PUSH1 0x0 DUP1 REVERT JUMPDEST DUP1 PUSH4 0x31A841B1 EQ PUSH2 0x6C JUMPI DUP1 PUSH4 0x3289E5E0 EQ PUSH2 0x92 JUMPI JUMPDEST PUSH1 0x0 DUP1 REVERT JUMPDEST PUSH2 0x7F PUSH2 0x7A CALLDATASIZE PUSH1 0x4 PUSH2 0x651 JUMP JUMPDEST PUSH2 0xED JUMP JUMPDEST PUSH1 0x40 MLOAD SWAP1 DUP2 MSTORE PUSH1 0x20 ADD JUMPDEST PUSH1 0x40 MLOAD DUP1 SWAP2 SUB SWAP1 RETURN JUMPDEST PUSH2 0x7F PUSH2 0xA0 CALLDATASIZE PUSH1 0x4 PUSH2 0x651 JUMP JUMPDEST PUSH2 0x120 JUMP JUMPDEST PUSH2 0xB8 PUSH2 0xB3 CALLDATASIZE PUSH1 0x4 PUSH2 0x673 JUMP JUMPDEST PUSH2 0x153 JUMP JUMPDEST PUSH1 0x40 MLOAD PUSH2 0x89 SWAP2 SWAP1 PUSH2 0x6EA JUMP JUMPDEST PUSH2 0xD8 PUSH2 0xD3 CALLDATASIZE PUSH1 0x4 PUSH2 0x7FE JUMP JUMPDEST PUSH2 0x34B JUMP JUMPDEST STOP JUMPDEST PUSH2 0xB8 PUSH2 0xE8 CALLDATASIZE PUSH1 0x4 PUSH2 0x673 JUMP JUMPDEST PUSH2 0x519 JUMP JUMPDEST PUSH1 0x0 CALLER PUSH1 0x1 PUSH1 0x1 PUSH1 0xA0 SHL SUB DUP4 AND EQ PUSH2 0x104 JUMPI PUSH1 0x0 DUP1 REVERT JUMPDEST POP PUSH1 0x1 PUSH1 0x1 PUSH1 0xA0 SHL SUB AND PUSH1 0x0 SWAP1 DUP2 MSTORE PUSH1 0x5 PUSH1 0x20 MSTORE PUSH1 0x40 SWAP1 KECCAK256 SLOAD SWAP1 JUMP JUMPDEST PUSH1 0x0 CALLER PUSH1 0x1 PUSH1 0x1 PUSH1 0xA0 SHL SUB DUP4 AND EQ PUSH2 0x137 JUMPI PUSH1 0x0 DUP1 REVERT JUMPDEST POP PUSH1 0x1 PUSH1 0x1 PUSH1 0xA0 SHL SUB AND PUSH1 0x0 SWAP1 DUP2 MSTORE PUSH1 0x4 PUSH1 0x20 MSTORE PUSH1 0x40 SWAP1 KECCAK256 SLOAD SWAP1 JUMP JUMPDEST PUSH2 0x197 PUSH1 0x40 MLOAD DUP1 PUSH1 0xA0 ADD PUSH1 0x40 MSTORE DUP1 PUSH1 0x0 PUSH1 0x1 PUSH1 0x1 PUSH1 0xA0 SHL SUB AND DUP2 MSTORE PUSH1 0x20 ADD PUSH1 0x0 PUSH1 0x1 PUSH1 0x1 PUSH1 0xA0 SHL SUB AND DUP2 MSTORE PUSH1 0x20 ADD PUSH1 0x60 DUP2 MSTORE PUSH1 0x20 ADD PUSH1 0x60 DUP2 MSTORE PUSH1 0x20 ADD PUSH1 0x0 DUP2 MSTORE POP SWAP1 JUMP JUMPDEST CALLER PUSH1 0x1 PUSH1 0x1 PUSH1 0xA0 SHL SUB DUP5 AND EQ PUSH2 0x1AC JUMPI PUSH1 0x0 DUP1 REVERT JUMPDEST PUSH1 0x1 PUSH1 0x1 PUSH1 0xA0 SHL SUB DUP4 AND PUSH1 0x0 SWAP1 DUP2 MSTORE PUSH1 0x2 PUSH1 0x20 MSTORE PUSH1 0x40 SWAP1 KECCAK256 DUP1 SLOAD DUP4 SWAP1 DUP2 LT PUSH2 0x1D6 JUMPI PUSH2 0x1D6 PUSH2 0x872 JUMP JUMPDEST PUSH1 0x0 SWAP2 DUP3 MSTORE PUSH1 0x20 SWAP2 DUP3 SWAP1 KECCAK256 PUSH1 0x40 DUP1 MLOAD PUSH1 0xA0 DUP2 ADD DUP3 MSTORE PUSH1 0x5 SWAP1 SWAP4 MUL SWAP1 SWAP2 ADD DUP1 SLOAD PUSH1 0x1 PUSH1 0x1 PUSH1 0xA0 SHL SUB SWAP1 DUP2 AND DUP5 MSTORE PUSH1 0x1 DUP3 ADD SLOAD AND SWAP4 DUP4 ADD SWAP4 SWAP1 SWAP4 MSTORE PUSH1 0x2 DUP4 ADD DUP1 SLOAD SWAP3 SWAP4 SWAP3 SWAP2 DUP5 ADD SWAP2 PUSH2 0x225 SWAP1 PUSH2 0x888 JUMP JUMPDEST DUP1 PUSH1 0x1F ADD PUSH1 0x20 DUP1 SWAP2 DIV MUL PUSH1 0x20 ADD PUSH1 0x40 MLOAD SWAP1 DUP2 ADD PUSH1 0x40 MSTORE DUP1 SWAP3 SWAP2 SWAP1 DUP2 DUP2 MSTORE PUSH1 0x20 ADD DUP3 DUP1 SLOAD PUSH2 0x251 SWAP1 PUSH2 0x888 JUMP JUMPDEST DUP1 ISZERO PUSH2 0x29E JUMPI DUP1 PUSH1 0x1F LT PUSH2 0x273 JUMPI PUSH2 0x100 DUP1 DUP4 SLOAD DIV MUL DUP4 MSTORE SWAP2 PUSH1 0x20 ADD SWAP2 PUSH2 0x29E JUMP JUMPDEST DUP3 ADD SWAP2 SWAP1 PUSH1 0x0 MSTORE PUSH1 0x20 PUSH1 0x0 KECCAK256 SWAP1 JUMPDEST DUP2 SLOAD DUP2 MSTORE SWAP1 PUSH1 0x1 ADD SWAP1 PUSH1 0x20 ADD DUP1 DUP4 GT PUSH2 0x281 JUMPI DUP3 SWAP1 SUB PUSH1 0x1F AND DUP3 ADD SWAP2 JUMPDEST POP POP POP POP POP DUP2 MSTORE PUSH1 0x20 ADD PUSH1 0x3 DUP3 ADD DUP1 SLOAD PUSH2 0x2B7 SWAP1 PUSH2 0x888 JUMP JUMPDEST DUP1 PUSH1 0x1F ADD PUSH1 0x20 DUP1 SWAP2 DIV MUL PUSH1 0x20 ADD PUSH1 0x40 MLOAD SWAP1 DUP2 ADD PUSH1 0x40 MSTORE DUP1 SWAP3 SWAP2 SWAP1 DUP2 DUP2 MSTORE PUSH1 0x20 ADD DUP3 DUP1 SLOAD PUSH2 0x2E3 SWAP1 PUSH2 0x888 JUMP JUMPDEST DUP1 ISZERO PUSH2 0x330 JUMPI DUP1 PUSH1 0x1F LT PUSH2 0x305 JUMPI PUSH2 0x100 DUP1 DUP4 SLOAD DIV MUL DUP4 MSTORE SWAP2 PUSH1 0x20 ADD SWAP2 PUSH2 0x330 JUMP JUMPDEST DUP3 ADD SWAP2 SWAP1 PUSH1 0x0 MSTORE PUSH1 0x20 PUSH1 0x0 KECCAK256 SWAP1 JUMPDEST DUP2 SLOAD DUP2 MSTORE SWAP1 PUSH1 0x1 ADD SWAP1 PUSH1 0x20 ADD DUP1 DUP4 GT PUSH2 0x313 JUMPI DUP3 SWAP1 SUB PUSH1 0x1F AND DUP3 ADD SWAP2 JUMPDEST POP POP POP POP POP DUP2 MSTORE PUSH1 0x20 ADD PUSH1 0x4 DUP3 ADD SLOAD DUP2 MSTORE POP POP SWAP1 POP SWAP3 SWAP2 POP POP JUMP JUMPDEST PUSH1 0x40 DUP1 MLOAD PUSH1 0xA0 DUP2 ADD DUP3 MSTORE CALLER DUP1 DUP3 MSTORE PUSH1 0x1 PUSH1 0x1 PUSH1 0xA0 SHL SUB DUP7 DUP2 AND PUSH1 0x20 DUP1 DUP6 ADD SWAP2 DUP3 MSTORE DUP5 DUP7 ADD DUP9 DUP2 MSTORE PUSH1 0x60 DUP7 ADD DUP9 SWAP1 MSTORE TIMESTAMP PUSH1 0x80 DUP8 ADD MSTORE PUSH1 0x0 SWAP5 DUP6 MSTORE PUSH1 0x2 DUP1 DUP4 MSTORE SWAP7 DUP6 KECCAK256 DUP1 SLOAD PUSH1 0x1 DUP2 DUP2 ADD DUP4 SSTORE SWAP2 DUP8 MSTORE SWAP6 DUP4 SWAP1 KECCAK256 DUP8 MLOAD PUSH1 0x5 SWAP1 SWAP8 MUL ADD DUP1 SLOAD SWAP7 DUP7 AND PUSH20 0xFFFFFFFFFFFFFFFFFFFFFFFFFFFFFFFFFFFFFFFF NOT SWAP8 DUP9 AND OR DUP2 SSTORE SWAP4 MLOAD SWAP1 DUP5 ADD DUP1 SLOAD SWAP2 SWAP1 SWAP6 AND SWAP6 AND SWAP5 SWAP1 SWAP5 OR SWAP1 SWAP3 SSTORE SWAP2 MLOAD DUP1 MLOAD SWAP4 SWAP5 DUP6 SWAP5 PUSH2 0x3F2 SWAP4 SWAP2 DUP6 ADD SWAP3 SWAP1 SWAP2 ADD SWAP1 PUSH2 0x59C JUMP JUMPDEST POP PUSH1 0x60 DUP3 ADD MLOAD DUP1 MLOAD PUSH2 0x40E SWAP2 PUSH1 0x3 DUP5 ADD SWAP2 PUSH1 0x20 SWAP1 SWAP2 ADD SWAP1 PUSH2 0x59C JUMP JUMPDEST POP PUSH1 0x80 SWAP2 SWAP1 SWAP2 ADD MLOAD PUSH1 0x4 SWAP2 DUP3 ADD SSTORE CALLER PUSH1 0x0 SWAP1 DUP2 MSTORE PUSH1 0x20 SWAP2 SWAP1 SWAP2 MSTORE PUSH1 0x40 DUP2 KECCAK256 DUP1 SLOAD SWAP2 PUSH2 0x438 DUP4 PUSH2 0x8C2 JUMP JUMPDEST SWAP1 SWAP2 SSTORE POP POP PUSH1 0x1 PUSH1 0x1 PUSH1 0xA0 SHL SUB DUP1 DUP6 AND PUSH1 0x0 SWAP1 DUP2 MSTORE PUSH1 0x3 PUSH1 0x20 SWAP1 DUP2 MSTORE PUSH1 0x40 DUP1 DUP4 KECCAK256 DUP1 SLOAD PUSH1 0x1 DUP2 DUP2 ADD DUP4 SSTORE SWAP2 DUP6 MSTORE SWAP4 DUP4 SWAP1 KECCAK256 DUP7 MLOAD PUSH1 0x5 SWAP1 SWAP6 MUL ADD DUP1 SLOAD SWAP5 DUP7 AND PUSH20 0xFFFFFFFFFFFFFFFFFFFFFFFFFFFFFFFFFFFFFFFF NOT SWAP6 DUP7 AND OR DUP2 SSTORE DUP7 DUP5 ADD MLOAD SWAP2 DUP2 ADD DUP1 SLOAD SWAP3 SWAP1 SWAP7 AND SWAP2 SWAP1 SWAP5 AND OR SWAP1 SWAP4 SSTORE SWAP2 DUP4 ADD MLOAD DUP1 MLOAD DUP5 SWAP4 PUSH2 0x4C0 SWAP3 PUSH1 0x2 DUP6 ADD SWAP3 SWAP2 ADD SWAP1 PUSH2 0x59C JUMP JUMPDEST POP PUSH1 0x60 DUP3 ADD MLOAD DUP1 MLOAD PUSH2 0x4DC SWAP2 PUSH1 0x3 DUP5 ADD SWAP2 PUSH1 0x20 SWAP1 SWAP2 ADD SWAP1 PUSH2 0x59C JUMP JUMPDEST POP PUSH1 0x80 SWAP2 SWAP1 SWAP2 ADD MLOAD PUSH1 0x4 SWAP1 SWAP2 ADD SSTORE PUSH1 0x1 PUSH1 0x1 PUSH1 0xA0 SHL SUB DUP5 AND PUSH1 0x0 SWAP1 DUP2 MSTORE PUSH1 0x5 PUSH1 0x20 MSTORE PUSH1 0x40 DUP2 KECCAK256 DUP1 SLOAD SWAP2 PUSH2 0x50E DUP4 PUSH2 0x8C2 JUMP JUMPDEST SWAP2 SWAP1 POP SSTORE POP POP POP POP POP JUMP JUMPDEST PUSH2 0x55D PUSH1 0x40 MLOAD DUP1 PUSH1 0xA0 ADD PUSH1 0x40 MSTORE DUP1 PUSH1 0x0 PUSH1 0x1 PUSH1 0x1 PUSH1 0xA0 SHL SUB AND DUP2 MSTORE PUSH1 0x20 ADD PUSH1 0x0 PUSH1 0x1 PUSH1 0x1 PUSH1 0xA0 SHL SUB AND DUP2 MSTORE PUSH1 0x20 ADD PUSH1 0x60 DUP2 MSTORE PUSH1 0x20 ADD PUSH1 0x60 DUP2 MSTORE PUSH1 0x20 ADD PUSH1 0x0 DUP2 MSTORE POP SWAP1 JUMP JUMPDEST CALLER PUSH1 0x1 PUSH1 0x1 PUSH1 0xA0 SHL SUB DUP5 AND EQ PUSH2 0x572 JUMPI PUSH1 0x0 DUP1 REVERT JUMPDEST PUSH1 0x1 PUSH1 0x1 PUSH1 0xA0 SHL SUB DUP4 AND PUSH1 0x0 SWAP1 DUP2 MSTORE PUSH1 0x3 PUSH1 0x20 MSTORE PUSH1 0x40 SWAP1 KECCAK256 DUP1 SLOAD DUP4 SWAP1 DUP2 LT PUSH2 0x1D6 JUMPI PUSH2 0x1D6 PUSH2 0x872 JUMP JUMPDEST DUP3 DUP1 SLOAD PUSH2 0x5A8 SWAP1 PUSH2 0x888 JUMP JUMPDEST SWAP1 PUSH1 0x0 MSTORE PUSH1 0x20 PUSH1 0x0 KECCAK256 SWAP1 PUSH1 0x1F ADD PUSH1 0x20 SWAP1 DIV DUP2 ADD SWAP3 DUP3 PUSH2 0x5CA JUMPI PUSH1 0x0 DUP6 SSTORE PUSH2 0x610 JUMP JUMPDEST DUP3 PUSH1 0x1F LT PUSH2 0x5E3 JUMPI DUP1 MLOAD PUSH1 0xFF NOT AND DUP4 DUP1 ADD OR DUP6 SSTORE PUSH2 0x610 JUMP JUMPDEST DUP3 DUP1 ADD PUSH1 0x1 ADD DUP6 SSTORE DUP3 ISZERO PUSH2 0x610 JUMPI SWAP2 DUP3 ADD JUMPDEST DUP3 DUP2 GT ISZERO PUSH2 0x610 JUMPI DUP3 MLOAD DUP3 SSTORE SWAP2 PUSH1 0x20 ADD SWAP2 SWAP1 PUSH1 0x1 ADD SWAP1 PUSH2 0x5F5 JUMP JUMPDEST POP PUSH2 0x61C SWAP3 SWAP2 POP PUSH2 0x620 JUMP JUMPDEST POP SWAP1 JUMP JUMPDEST JUMPDEST DUP1 DUP3 GT ISZERO PUSH2 0x61C JUMPI PUSH1 0x0 DUP2 SSTORE PUSH1 0x1 ADD PUSH2 0x621 JUMP JUMPDEST DUP1 CALLDATALOAD PUSH1 0x1 PUSH1 0x1 PUSH1 0xA0 SHL SUB DUP2 AND DUP2 EQ PUSH2 0x64C JUMPI PUSH1 0x0 DUP1 REVERT JUMPDEST SWAP2 SWAP1 POP JUMP JUMPDEST PUSH1 0x0 PUSH1 0x20 DUP3 DUP5 SUB SLT ISZERO PUSH2 0x663 JUMPI PUSH1 0x0 DUP1 REVERT JUMPDEST PUSH2 0x66C DUP3 PUSH2 0x635 JUMP JUMPDEST SWAP4 SWAP3 POP POP POP JUMP JUMPDEST PUSH1 0x0 DUP1 PUSH1 0x40 DUP4 DUP6 SUB SLT ISZERO PUSH2 0x686 JUMPI PUSH1 0x0 DUP1 REVERT JUMPDEST PUSH2 0x68F DUP4 PUSH2 0x635 JUMP JUMPDEST SWAP5 PUSH1 0x20 SWAP4 SWAP1 SWAP4 ADD CALLDATALOAD SWAP4 POP POP POP JUMP JUMPDEST PUSH1 0x0 DUP2 MLOAD DUP1 DUP5 MSTORE PUSH1 0x0 JUMPDEST DUP2 DUP2 LT ISZERO PUSH2 0x6C3 JUMPI PUSH1 0x20 DUP2 DUP6 ADD DUP2 ADD MLOAD DUP7 DUP4 ADD DUP3 ADD MSTORE ADD PUSH2 0x6A7 JUMP JUMPDEST DUP2 DUP2 GT ISZERO PUSH2 0x6D5 JUMPI PUSH1 0x0 PUSH1 0x20 DUP4 DUP8 ADD ADD MSTORE JUMPDEST POP PUSH1 0x1F ADD PUSH1 0x1F NOT AND SWAP3 SWAP1 SWAP3 ADD PUSH1 0x20 ADD SWAP3 SWAP2 POP POP JUMP JUMPDEST PUSH1 0x20 DUP2 MSTORE PUSH1 0x0 PUSH1 0x1 PUSH1 0x1 PUSH1 0xA0 SHL SUB DUP1 DUP5 MLOAD AND PUSH1 0x20 DUP5 ADD MSTORE DUP1 PUSH1 0x20 DUP6 ADD MLOAD AND PUSH1 0x40 DUP5 ADD MSTORE POP PUSH1 0x40 DUP4 ADD MLOAD PUSH1 0xA0 PUSH1 0x60 DUP5 ADD MSTORE PUSH2 0x727 PUSH1 0xC0 DUP5 ADD DUP3 PUSH2 0x69D JUMP JUMPDEST SWAP1 POP PUSH1 0x60 DUP5 ADD MLOAD PUSH1 0x1F NOT DUP5 DUP4 SUB ADD PUSH1 0x80 DUP6 ADD MSTORE PUSH2 0x744 DUP3 DUP3 PUSH2 0x69D JUMP JUMPDEST SWAP2 POP POP PUSH1 0x80 DUP5 ADD MLOAD PUSH1 0xA0 DUP5 ADD MSTORE DUP1 SWAP2 POP POP SWAP3 SWAP2 POP POP JUMP JUMPDEST PUSH4 0x4E487B71 PUSH1 0xE0 SHL PUSH1 0x0 MSTORE PUSH1 0x41 PUSH1 0x4 MSTORE PUSH1 0x24 PUSH1 0x0 REVERT JUMPDEST PUSH1 0x0 DUP3 PUSH1 0x1F DUP4 ADD SLT PUSH2 0x782 JUMPI PUSH1 0x0 DUP1 REVERT JUMPDEST DUP2 CALLDATALOAD PUSH8 0xFFFFFFFFFFFFFFFF DUP1 DUP3 GT ISZERO PUSH2 0x79D JUMPI PUSH2 0x79D PUSH2 0x75B JUMP JUMPDEST PUSH1 0x40 MLOAD PUSH1 0x1F DUP4 ADD PUSH1 0x1F NOT SWAP1 DUP2 AND PUSH1 0x3F ADD AND DUP2 ADD SWAP1 DUP3 DUP3 GT DUP2 DUP4 LT OR ISZERO PUSH2 0x7C5 JUMPI PUSH2 0x7C5 PUSH2 0x75B JUMP JUMPDEST DUP2 PUSH1 0x40 MSTORE DUP4 DUP2 MSTORE DUP7 PUSH1 0x20 DUP6 DUP9 ADD ADD GT ISZERO PUSH2 0x7DE JUMPI PUSH1 0x0 DUP1 REVERT JUMPDEST DUP4 PUSH1 0x20 DUP8 ADD PUSH1 0x20 DUP4 ADD CALLDATACOPY PUSH1 0x0 PUSH1 0x20 DUP6 DUP4 ADD ADD MSTORE DUP1 SWAP5 POP POP POP POP POP SWAP3 SWAP2 POP POP JUMP JUMPDEST PUSH1 0x0 DUP1 PUSH1 0x0 PUSH1 0x60 DUP5 DUP7 SUB SLT ISZERO PUSH2 0x813 JUMPI PUSH1 0x0 DUP1 REVERT JUMPDEST PUSH2 0x81C DUP5 PUSH2 0x635 JUMP JUMPDEST SWAP3 POP PUSH1 0x20 DUP5 ADD CALLDATALOAD PUSH8 0xFFFFFFFFFFFFFFFF DUP1 DUP3 GT ISZERO PUSH2 0x839 JUMPI PUSH1 0x0 DUP1 REVERT JUMPDEST PUSH2 0x845 DUP8 DUP4 DUP9 ADD PUSH2 0x771 JUMP JUMPDEST SWAP4 POP PUSH1 0x40 DUP7 ADD CALLDATALOAD SWAP2 POP DUP1 DUP3 GT ISZERO PUSH2 0x85B JUMPI PUSH1 0x0 DUP1 REVERT JUMPDEST POP PUSH2 0x868 DUP7 DUP3 DUP8 ADD PUSH2 0x771 JUMP JUMPDEST SWAP2 POP POP SWAP3 POP SWAP3 POP SWAP3 JUMP JUMPDEST PUSH4 0x4E487B71 PUSH1 0xE0 SHL PUSH1 0x0 MSTORE PUSH1 0x32 PUSH1 0x4 MSTORE PUSH1 0x24 PUSH1 0x0 REVERT JUMPDEST PUSH1 0x1 DUP2 DUP2 SHR SWAP1 DUP3 AND DUP1 PUSH2 0x89C JUMPI PUSH1 0x7F DUP3 AND SWAP2 POP JUMPDEST PUSH1 0x20 DUP3 LT DUP2 SUB PUSH2 0x8BC JUMPI PUSH4 0x4E487B71 PUSH1 0xE0 SHL PUSH1 0x0 MSTORE PUSH1 0x22 PUSH1 0x4 MSTORE PUSH1 0x24 PUSH1 0x0 REVERT JUMPDEST POP SWAP2 SWAP1 POP JUMP JUMPDEST PUSH1 0x0 PUSH1 0x1 DUP3 ADD PUSH2 0x8E2 JUMPI PUSH4 0x4E487B71 PUSH1 0xE0 SHL PUSH1 0x0 MSTORE PUSH1 0x11 PUSH1 0x4 MSTORE PUSH1 0x24 PUSH1 0x0 REVERT JUMPDEST POP PUSH1 0x1 ADD SWAP1 JUMP INVALID LOG2 PUSH5 0x6970667358 0x22 SLT KECCAK256 PUSH27 0x5972D4F9BA62BDCB6DC436791ED267CF9F2B61DFBBBC59D3F1AB00 DUP3 ISZERO PUSH29 0x4064736F6C634300080D00330000000000000000000000000000000000 "
    },
    "gasEstimates": {
      "creation": {
        "codeDepositCost": "467000",
        "executionCost": "499",
        "totalCost": "467499"
      },
      "external": {
        "getReceivedMails(address,uint256)": "infinite",
        "getReceivedMailsCount(address)": "2584",
        "getSentMails(address,uint256)": "infinite",
        "getSentMailsCount(address)": "2606",
        "sendMail(address,string,string)": "infinite"
      }
    },
    "methodIdentifiers": {
      "getReceivedMails(address,uint256)": "e0984649",
      "getReceivedMailsCount(address)": "31a841b1",
      "getSentMails(address,uint256)": "97027a3d",
      "getSentMailsCount(address)": "3289e5e0",
      "sendMail(address,string,string)": "c1565b58"
    }
  },
  "storageLayout": {
    "storage": [
      {
        "astId": 17,
        "contract": "dmail.sol:DecentralizedMailer",
        "label": "mailIDCollection",
        "offset": 0,
        "slot": "0",
        "type": "t_mapping(t_uint256,t_struct(Mail)12_storage)"
      },
      {
        "astId": 20,
        "contract": "dmail.sol:DecentralizedMailer",
        "label": "mailDatabase",
        "offset": 0,
        "slot": "1",
        "type": "t_array(t_uint256)dyn_storage"
      },
      {
        "astId": 26,
        "contract": "dmail.sol:DecentralizedMailer",
        "label": "sentMails",
        "offset": 0,
        "slot": "2",
        "type": "t_mapping(t_address,t_array(t_struct(Mail)12_storage)dyn_storage)"
      },
      {
        "astId": 32,
        "contract": "dmail.sol:DecentralizedMailer",
        "label": "receivedMails",
        "offset": 0,
        "slot": "3",
        "type": "t_mapping(t_address,t_array(t_struct(Mail)12_storage)dyn_storage)"
      },
      {
        "astId": 36,
        "contract": "dmail.sol:DecentralizedMailer",
        "label": "sentMailsCount",
        "offset": 0,
        "slot": "4",
        "type": "t_mapping(t_address,t_uint256)"
      },
      {
        "astId": 40,
        "contract": "dmail.sol:DecentralizedMailer",
        "label": "receivedMailsCount",
        "offset": 0,
        "slot": "5",
        "type": "t_mapping(t_address,t_uint256)"
      }
    ],
    "types": {
      "t_address": {
        "encoding": "inplace",
        "label": "address",
        "numberOfBytes": "20"
      },
      "t_array(t_struct(Mail)12_storage)dyn_storage": {
        "base": "t_struct(Mail)12_storage",
        "encoding": "dynamic_array",
        "label": "struct DecentralizedMailer.Mail[]",
        "numberOfBytes": "32"
      },
      "t_array(t_uint256)dyn_storage": {
        "base": "t_uint256",
        "encoding": "dynamic_array",
        "label": "uint256[]",
        "numberOfBytes": "32"
      },
      "t_mapping(t_address,t_array(t_struct(Mail)12_storage)dyn_storage)": {
        "encoding": "mapping",
        "key": "t_address",
        "label": "mapping(address => struct DecentralizedMailer.Mail[])",
        "numberOfBytes": "32",
        "value": "t_array(t_struct(Mail)12_storage)dyn_storage"
      },
      "t_mapping(t_address,t_uint256)": {
        "encoding": "mapping",
        "key": "t_address",
        "label": "mapping(address => uint256)",
        "numberOfBytes": "32",
        "value": "t_uint256"
      },
      "t_mapping(t_uint256,t_struct(Mail)12_storage)": {
        "encoding": "mapping",
        "key": "t_uint256",
        "label": "mapping(uint256 => struct DecentralizedMailer.Mail)",
        "numberOfBytes": "32",
        "value": "t_struct(Mail)12_storage"
      },
      "t_string_storage": {
        "encoding": "bytes",
        "label": "string",
        "numberOfBytes": "32"
      },
      "t_struct(Mail)12_storage": {
        "encoding": "inplace",
        "label": "struct DecentralizedMailer.Mail",
        "members": [
          {
            "astId": 3,
            "contract": "dmail.sol:DecentralizedMailer",
            "label": "from",
            "offset": 0,
            "slot": "0",
            "type": "t_address"
          },
          {
            "astId": 5,
            "contract": "dmail.sol:DecentralizedMailer",
            "label": "to",
            "offset": 0,
            "slot": "1",
            "type": "t_address"
          },
          {
            "astId": 7,
            "contract": "dmail.sol:DecentralizedMailer",
            "label": "subject",
            "offset": 0,
            "slot": "2",
            "type": "t_string_storage"
          },
          {
            "astId": 9,
            "contract": "dmail.sol:DecentralizedMailer",
            "label": "message",
            "offset": 0,
            "slot": "3",
            "type": "t_string_storage"
          },
          {
            "astId": 11,
            "contract": "dmail.sol:DecentralizedMailer",
            "label": "timestamp",
            "offset": 0,
            "slot": "4",
            "type": "t_uint256"
          }
        ],
        "numberOfBytes": "160"
      },
      "t_uint256": {
        "encoding": "inplace",
        "label": "uint256",
        "numberOfBytes": "32"
      }
    }
  },
  "userdoc": {
    "kind": "user",
    "methods": {},
    "version": 1
  }
}